{"abi":[{"type":"function","name":"addManager","inputs":[{"name":"_addr","type":"address","internalType":"address"}],"outputs":[],"stateMutability":"nonpayable"},{"type":"function","name":"addToken","inputs":[{"name":"_addr","type":"address","internalType":"address"}],"outputs":[],"stateMutability":"nonpayable"},{"type":"function","name":"allowedTokens","inputs":[{"name":"","type":"address","internalType":"address"}],"outputs":[{"name":"","type":"bool","internalType":"bool"}],"stateMutability":"view"},{"type":"function","name":"initializeJob","inputs":[{"name":"_jobid","type":"string","internalType":"string"},{"name":"freelancer","type":"address","internalType":"address"},{"name":"stabletoken","type":"address","internalType":"address"}],"outputs":[],"stateMutability":"nonpayable"},{"type":"function","name":"isManager","inputs":[{"name":"","type":"address","internalType":"address"}],"outputs":[{"name":"","type":"bool","internalType":"bool"}],"stateMutability":"view"},{"type":"function","name":"jobs","inputs":[{"name":"jobId","type":"string","internalType":"string"}],"outputs":[{"name":"amount","type":"uint256","internalType":"uint256"},{"name":"stableCoinToken","type":"address","internalType":"address"},{"name":"selectedFreelancer","type":"address","internalType":"address"},{"name":"client","type":"address","internalType":"address"},{"name":"isStarted","type":"bool","internalType":"bool"},{"name":"isPaid","type":"bool","internalType":"bool"},{"name":"hasConflict","type":"bool","internalType":"bool"}],"stateMutability":"view"},{"type":"function","name":"raiseConflict","inputs":[{"name":"_jobid","type":"string","internalType":"string"}],"outputs":[],"stateMutability":"nonpayable"},{"type":"function","name":"refund","inputs":[{"name":"_jobid","type":"string","internalType":"string"},{"name":"_addr","type":"address","internalType":"address"}],"outputs":[],"stateMutability":"nonpayable"},{"type":"function","name":"releasePayament","inputs":[{"name":"_jobid","type":"string","internalType":"string"}],"outputs":[],"stateMutability":"nonpayable"},{"type":"function","name":"requestJob","inputs":[{"name":"_jobid","type":"string","internalType":"string"},{"name":"client","type":"address","internalType":"address"},{"name":"amount","type":"uint256","internalType":"uint256"}],"outputs":[{"name":"","type":"string","internalType":"string"}],"stateMutability":"nonpayable"},{"type":"function","name":"selected","inputs":[{"name":"","type":"address","internalType":"address"},{"name":"","type":"bool","internalType":"bool"}],"outputs":[{"name":"amount","type":"uint256","internalType":"uint256"},{"name":"stableCoinToken","type":"address","internalType":"address"},{"name":"selectedFreelancer","type":"address","internalType":"address"},{"name":"client","type":"address","internalType":"address"},{"name":"isStarted","type":"bool","internalType":"bool"},{"name":"isPaid","type":"bool","internalType":"bool"},{"name":"hasConflict","type":"bool","internalType":"bool"}],"stateMutability":"view"},{"type":"event","name":"InitJob","inputs":[{"name":"client","type":"address","indexed":true,"internalType":"address"},{"name":"freelancer","type":"address","indexed":true,"internalType":"address"},{"name":"jobid","type":"string","indexed":false,"internalType":"string"},{"name":"_amout","type":"uint256","indexed":false,"internalType":"uint256"}],"anonymous":false},{"type":"event","name":"RequestJob","inputs":[{"name":"_freelancer","type":"address","indexed":true,"internalType":"address"},{"name":"_jobid","type":"string","indexed":true,"internalType":"string"}],"anonymous":false}],"bytecode":{"object":"0x6080604052348015600f57600080fd5b50336000908152602081905260409020805460ff19166001179055610fb2806100396000396000f3fe608060405234801561001057600080fd5b50600436106100a95760003560e01c806371cc805a1161007157806371cc805a14610125578063b05e6f5a14610138578063c375085a146101f1578063d48bfca714610260578063e744092e14610273578063f3ae2415146102a657600080fd5b8063067d5fcd146100ae5780632d06177a146100c357806337233646146100d6578063476029b7146100ff5780634a98b53c14610112575b600080fd5b6100c16100bc366004610c93565b6102c9565b005b6100c16100d1366004610cec565b6103cf565b6100e96100e4366004610d0e565b610422565b6040516100f69190610db5565b60405180910390f35b6100c161010d366004610c93565b610500565b6100c1610120366004610dc8565b610731565b6100c1610133366004610e26565b610a1c565b6101a9610146366004610c93565b805180820160209081018051600282529282019190930120915280546001820154600383015460049093015491926001600160a01b03918216929082169181169060ff600160a01b8204811691600160a81b8104821691600160b01b9091041687565b604080519788526001600160a01b039687166020890152948616948701949094529390911660608501521515608084015290151560a0830152151560c082015260e0016100f6565b6101a96101ff366004610e85565b60036020818152600093845260408085209091529183529120805460018201549282015460049092015490926001600160a01b03908116928116919081169060ff600160a01b8204811691600160a81b8104821691600160b01b9091041687565b6100c161026e366004610cec565b610a55565b610296610281366004610cec565b60016020526000908152604090205460ff1681565b60405190151581526020016100f6565b6102966102b4366004610cec565b60006020819052908152604090205460ff1681565b60006002826040516102db9190610ebc565b9081526040519081900360200190206004810154909150336001600160a01b039091161480610316575060038101546001600160a01b031633145b61038d5760405162461bcd60e51b815260206004820152603860248201527f6f6e6c79206a6f62204f776e6572206f722073656c656374656420467265656c60448201527f616e6365722063616e20726169736520636f6e666c696374000000000000000060648201526084015b60405180910390fd5b6004810154600160a01b900460ff166103b85760405162461bcd60e51b815260040161038490610ed8565b600401805460ff60b01b1916600160b01b17905550565b3360009081526020819052604090205460ff166103fe5760405162461bcd60e51b815260040161038490610f01565b6001600160a01b03166000908152602081905260409020805460ff19166001179055565b606060006002856040516104369190610ebc565b90815260405190819003602001902060048101549091506001600160a01b0316610478576004810180546001600160a01b0319166001600160a01b0386161790555b80541580156104875750600083115b15610490578281555b600281018054600181018255600091825260209091200180546001600160a01b031916331790556040516104c5908690610ebc565b6040519081900381209033907fcefb27834e1961bea9eabd86beab9eb8b4c1fe4ebbde38e650f2dd0cb14a254190600090a350929392505050565b60006002826040516105129190610ebc565b908152604080516020928190038301812060038101546002820180548087028501870190955284845291955061059b946001600160a01b03909116939083018282801561058857602002820191906000526020600020905b81546001600160a01b0316815260019091019060200180831161056a575b5050505050610aab90919063ffffffff16565b6105e75760405162461bcd60e51b815260206004820152601d60248201527f467265656c616e636572206469646e27742072657175657374206a6f620000006044820152606401610384565b60048101546001600160a01b031633146106345760405162461bcd60e51b815260206004820152600e60248201526d37b7363c903537b11027bbb732b960911b6044820152606401610384565b6004810154600160a01b900460ff1661065f5760405162461bcd60e51b815260040161038490610ed8565b6004810154600160a81b900460ff16156106aa5760405162461bcd60e51b815260206004820152600c60248201526b185b1c9958591e4814185a5960a21b6044820152606401610384565b6004810154600160b01b900460ff16156107145760405162461bcd60e51b815260206004820152602560248201527f43616e27742072656c65617365207061796d656e742064756520746f20636f6e604482015264199b1a58dd60da1b6064820152608401610384565b600381015461072d9083906001600160a01b0316610b08565b5050565b6001600160a01b038116600090815260016020526040902054819060ff1661078f5760405162461bcd60e51b81526020600482015260116024820152701d1bdad95b88139bdd08105b1b1bddd959607a1b6044820152606401610384565b60006002856040516107a19190610ebc565b9081526020016040518091039020905061081e8482600201805480602002602001604051908101604052809291908181526020018280548015610588576020028201919060005260206000209081546001600160a01b0316815260019091019060200180831161056a575050505050610aab90919063ffffffff16565b61086a5760405162461bcd60e51b815260206004820152601d60248201527f467265656c616e636572206469646e27742072657175657374206a6f620000006044820152606401610384565b60048101546001600160a01b031633146108b75760405162461bcd60e51b815260206004820152600e60248201526d37b7363c903537b11027bbb732b960911b6044820152606401610384565b6004810154600160a01b900460ff16156108e35760405162461bcd60e51b815260040161038490610ed8565b80546040516323b872dd60e01b815233600482015230602482015260448101919091526001600160a01b038416906323b872dd906064016020604051808303816000875af1158015610939573d6000803e3d6000fd5b505050506040513d601f19601f8201168201806040525081019061095d9190610f27565b6109925760405162461bcd60e51b815260206004820152600660248201526519985a5b195960d21b6044820152606401610384565b6003810180546001600160a01b038087166001600160a01b0319928316811790935560048401805460ff60a01b1916600160a01b17905560018401805491871691909216179055815460405133917fd11303e6c19d9bb5ba1828f8d11f7dd7cf2e5096e97bdfb39b6762f1f4d8dc5791610a0d918a91610f44565b60405180910390a35050505050565b3360009081526020819052604090205460ff16610a4b5760405162461bcd60e51b815260040161038490610f01565b61072d8282610b08565b3360009081526020819052604090205460ff16610a845760405162461bcd60e51b815260040161038490610f01565b6001600160a01b03166000908152600160208190526040909120805460ff19169091179055565b6000805b8351811015610afc57826001600160a01b0316848281518110610ad457610ad4610f66565b60200260200101516001600160a01b031603610af4576001915050610b02565b600101610aaf565b50600090505b92915050565b6000600283604051610b1a9190610ebc565b9081526040519081900360200181206001810154815463a9059cbb60e01b84526001600160a01b0386811660048601526024850191909152919350169063a9059cbb906044016020604051808303816000875af1158015610b7f573d6000803e3d6000fd5b505050506040513d601f19601f82011682018060405250810190610ba39190610f27565b610bd85760405162461bcd60e51b815260206004820152600660248201526519985a5b195960d21b6044820152606401610384565b600401805460ff60a81b1916600160a81b1790555050565b634e487b7160e01b600052604160045260246000fd5b600082601f830112610c1757600080fd5b813567ffffffffffffffff80821115610c3257610c32610bf0565b604051601f8301601f19908116603f01168101908282118183101715610c5a57610c5a610bf0565b81604052838152866020858801011115610c7357600080fd5b836020870160208301376000602085830101528094505050505092915050565b600060208284031215610ca557600080fd5b813567ffffffffffffffff811115610cbc57600080fd5b610cc884828501610c06565b949350505050565b80356001600160a01b0381168114610ce757600080fd5b919050565b600060208284031215610cfe57600080fd5b610d0782610cd0565b9392505050565b600080600060608486031215610d2357600080fd5b833567ffffffffffffffff811115610d3a57600080fd5b610d4686828701610c06565b935050610d5560208501610cd0565b9150604084013590509250925092565b60005b83811015610d80578181015183820152602001610d68565b50506000910152565b60008151808452610da1816020860160208601610d65565b601f01601f19169290920160200192915050565b602081526000610d076020830184610d89565b600080600060608486031215610ddd57600080fd5b833567ffffffffffffffff811115610df457600080fd5b610e0086828701610c06565b935050610e0f60208501610cd0565b9150610e1d60408501610cd0565b90509250925092565b60008060408385031215610e3957600080fd5b823567ffffffffffffffff811115610e5057600080fd5b610e5c85828601610c06565b925050610e6b60208401610cd0565b90509250929050565b8015158114610e8257600080fd5b50565b60008060408385031215610e9857600080fd5b610ea183610cd0565b91506020830135610eb181610e74565b809150509250929050565b60008251610ece818460208701610d65565b9190910192915050565b6020808252600f908201526e185b1c9958591e481cdd185c9d1959608a1b604082015260600190565b6020808252600c908201526b37b7363c9026b0b730b3b2b960a11b604082015260600190565b600060208284031215610f3957600080fd5b8151610d0781610e74565b604081526000610f576040830185610d89565b90508260208301529392505050565b634e487b7160e01b600052603260045260246000fdfea264697066735822122004e077b1b7631ecff3e8601967cc586e4198287a68ed9c742d3b171bfe64e64364736f6c63430008190033","linkReferences":{}},"methodIdentifiers":{"addManager(address)":"2d06177a","addToken(address)":"d48bfca7","allowedTokens(address)":"e744092e","initializeJob(string,address,address)":"4a98b53c","isManager(address)":"f3ae2415","jobs(string)":"b05e6f5a","raiseConflict(string)":"067d5fcd","refund(string,address)":"71cc805a","releasePayament(string)":"476029b7","requestJob(string,address,uint256)":"37233646","selected(address,bool)":"c375085a"},"id":28}